:020000040800F2
:1000000070A6002065010008A1020008A3020008F4
:10001000A5020008A7020008A902000800000000CD
:10002000000000000000000000000000AD02000819
:10003000AB020008000000009F620008AF02000849
:10004000FB0200087B0100087B0100087B0100081F
:100050007B0100087B0100087B0100087B01000890
:100060007B0100087B0100087B0100087B01000880
:100070007B0100087B0100087B0100087B01000870
:100080007B0100087B010008B16700087B010008C4
:100090007B0100087B0100087B0100087B01000850
:1000A0007B0100087B0100087B0100087B01000840
:1000B000FD0200087B0100087B0100087B010008AD
:1000C0007B0100087B0100087B0100087B01000820
:1000D0007B01000899810008CD810008F7810008A4
:1000E0007B0100087B0100087B0100080000000084
:1000F0000000000000000000000000000000000000
:1001000000000000000000007B0100087B010008E7
:10011000218200084B8200087B0100087B01000857
:100120007B0100087B0100087B0100087B010008BF
:100130007B0100087B0100087B0100087B010008AF
:100140007B0100087B0100087B010008FF0200081A
:10015000DFF80CD008F0B0F900480047DD2C0008AB
:1001600070A6002005480047FEE7FEE7FEE7FEE731
:10017000FEE7FEE7FEE7FEE7FEE7FEE751010008C7
:100180000CB50022019200923F48016841F4803191
:1001900001604FF4A063016801F4003100910199FE
:1001A000491C0191009911B901999942F3D1016853
:1001B000890302D50121009100E0009200990129F4
:1001C00000D0FEE731490A6842F010020A600A686E
:1001D00022F003020A600A6842F002020A604168E3
:1001E000416041684160416841F480614160C16A99
:1001F000274A1140C162C16A264A1143C16201689F
:1002000041F08061016001680901FCD5416821F479
:100210007C114160416841F4E8114160016841F09E
:100220008071016001688901FCD5416821F00301FA
:100230004160416841F0020141604168C1F38101C0
:100240000229FAD10CBD9BE70F48016841F001017A
:1002500001604168104A1140416001680F4A114035
:100260000160016821F480210160416821F4FE01F0
:100270004160016821F0A05101604FF47F0181606D
:100280000021C162DFE700000010024000200240B0
:1002900000F0FEFF440601000000FFF0FFFFF6FE45
:1002A0007047FEE7FEE7FEE7FEE77047704710B5D0
:1002B00005F0D4FF124A1178491C117005F0D2FFE5
:1002C00010490878401CC0B2087004280FD30020E1
:1002D00008700D4A506B401C50634FF47A71B0FBAC
:1002E000F1F301FB130010B9906B401C906304F014
:1002F000E5F8BDE8104004F070B8704770477047EB
:100300003C000020000000208854002010B501218E
:100310000C07204600F0E2F92046BDE8104000211D
:1003200000F0DCB91F49086270471E490861704738
:100330001D4A116821F0E0010143116070471B491B
:1003400008607047184B1A6822F0030202431A60D3
:100350001748026842F004020260012901D020BF60
:10036000704730BF70471048016841F004010160D8
:10037000016841F0020101600D48016841F004018B
:10038000016030BF704701460020074A52680A42A8
:1003900000D00120704704490A6842EA80000860E2
:1003A0007047000000000E4200700040A0000E42A6
:1003B00010ED00E0DC48016841F001010160416896
:1003C000DA4A114041600168D94A11400160016870
:1003D00021F480210160416821F4FE01416001683F
:1003E00021F0A05101604FF47F0181600021C162C2
:1003F0007047CD490A6822F480320A600A6822F404
:1004000080220A60B0F5803F07D0B0F5802F03D17D
:10041000086840F4A02008607047086840F4803005
:1004200008607047034600205909BF4A01290AD0D5
:1004300002290AD0516A03F01F02012393400B42A4
:1004400000D0012070471168F5E7116AF3E718B58D
:10045000002000904FF4A0643120FFF7E3FF0099E3
:10046000491C00910099A14201D00028F4D031200C
:10047000FFF7D8FF08B1012018BD002018BDAA4A17
:10048000116821F0F80141EAC00010607047A949E5
:1004900008607047A44B5A6822F474120843104352
:1004A00058607047A3490866704710B59E4BDA6ADA
:1004B000A14C224008431043D86210BD9A4AD16A29
:1004C00021F0F0010143D1627047974AD16A21F4CB
:1004D00070610143D1627047964988667047924ABD
:1004E000D16A21F470410143D16270479149086794
:1004F00070478D4A516821F00301014351607047F4
:100500008948406800F00C007047874A516821F024
:10051000F001014351607047834A516821F4E06162
:10052000014351607047804A516821F4605141EAAB
:10053000C000506070477C4A002903D0517A0143C3
:1005400051727047517A8143517270477B490860FC
:100550007047754A516821F440410143516070472A
:100560007749086070477649091D086070477549EA
:1005700000220A7001F82029012805D0042802D1A0
:10058000052081F820007047012081F82000704785
:100590006D490860704764490A6A02430A627047FD
:1005A000694944390860704770B55F4B596801F07C
:1005B0000C01664A002928D0654C042927D0082957
:1005C00027D00260596801F0F0010909614A545CC2
:1005D0000168E14041605C6804F4E064240A145D51
:1005E00021FA04F484605C6804F46054E40A125D47
:1005F000D140C1605A6802F44042920B554B1B1F18
:100600009A5CB1FBF2F1016170BD0260DAE704604F
:10061000D8E7596801F470115A6802F48032890CE5
:100620000D2901D0891C00E00621BAB1DA6A02F472
:100630008035DA6A02F00F02521C9DB1DD6AC5F303
:1006400003156D1CDE6AC6F30326B61CB4FBF5F475
:100650007443B4FBF2F24A430260B3E73E4A5143AB
:100660000160AFE7B4FBF2F24A430260AAE72E4A08
:10067000002903D051690143516170475169814399
:1006800051617047284A002903D091690143916163
:1006900070479169814391617047234A002903D0D3
:1006A000D1690143D1617047D1698143D1617047FC
:1006B0001D4A002903D0916A014391627047916AF3
:1006C000814391627047184A002903D0D1680143E1
:1006D000D1607047D1688143D1607047124A0029C8
:1006E00003D01169014311617047116981431161A0
:1006F000704715494039086070470E49C864704713
:100700000949C87170470848416A41F080714162E7
:10071000704701460020044A92680A4200D0012036
:100720007047014988727047001002400000FFF0D6
:10073000FFFFF6FE00004242F0FFFEFFD8004242FB
:10074000C4054242201002408004424200127A0056
:1007500040787D010500002000093D00434A002942
:1007600003D01188014311807047118881431180A3
:1007700070473E48001D018841F01001018070471C
:100780003A48001D018821F0100101807047374868
:100790001C30008835491831098840EA014070470B
:1007A00000B50246FFF7E5FF3049100C183108800C
:1007B000081D02805DF804EBE2E700B50246FFF792
:1007C000D8FF2A49C2F3034008310880081D02807F
:1007D0005DF804EBD4E700B50246FFF7CAFF2349F2
:1007E000100C20310880081D02805DF804EBC7E77B
:1007F0001E48103000880007010B1C481430008888
:10080000084370471948001D01888906FCD57047C8
:100810001648001D018821F00801018001880907A0
:10082000FCD5704701460020104A121D12880A426A
:1008300000D0012070470D49091D0A8882430A80B3
:1008400070470A49091D0988C2B21140074A128837
:10085000024202D009B101207047002070470349CD
:10086000091D0A8882430A80704700000028004062
:1008700010B5C94988420AD101218C032046FFF7EF
:1008800022FF2046BDE810400021FFF71CBFC349EE
:1008900088420AD101214C042046FFF71FFF204661
:1008A000BDE810400021FFF719BFBD4988420AD1B9
:1008B00001218C042046FFF711FF2046BDE81040BF
:1008C0000021FFF70BBFB74988420AD10121CC04B0
:1008D0002046FFF703FF2046BDE810400021FFF748
:1008E000FDBEB14988420AD101210C052046FFF71F
:1008F000F5FE2046BDE810400021FFF7EFBE10BD19
:1009000030B585B004460D46208A4CF6FF7108408C
:10091000E98801432182A0894EF6F3110840A98895
:100920002A8911436A8902431143A181A08A4FF6A3
:10093000FF410840A9890143A1826846FFF734FEC0
:100940009548844201D1039800E0029800EBC00171
:1009500001EB001029688900B0FBF1F06422B0FBC4
:10096000F2F109010B096FF018056B4300EB8300EE
:10097000322303EB0010B0FBF2F000F00F0008434D
:10098000208105B030BD4FF41651016000218180F7
:10099000C18001810C2242818181704710B5038A98
:1009A0004FF2FF0213400A884C8822438C88C98882
:1009B0000C4322431A43028210BD00210180418072
:1009C0008180C1807047002904D0818941F40051A1
:1009D00081817047818921F400518181704710B570
:1009E00040F66A13C1F3421301F01F040121A14034
:1009F000012B07D0022B07D014303AB102680A430A
:100A0000026010BD0C30F8E71030F6E702688A4348
:100A1000026010BD002A03D0828A0A438282704796
:100A2000828A8A4382827047028A22F00F020282FF
:100A3000028A0A4302827047828922F4006282811C
:100A400082890A4382817047002904D0818941F05C
:100A5000020181817047818921F002018181704703
:100A6000028A22F020020282028A0A43028270472E
:100A7000002904D0018A41F4804101827047018A33
:100A800021F4804101827047C1F3080181807047E1
:100A90008088C0F308007047818941F0010181819D
:100AA0007047028BD2B20283028B42EA012101839A
:100AB0007047028B02F47F420283028B0A43028357
:100AC0007047002904D0818A41F02001818270475B
:100AD000818A21F0200181827047002904D0818A17
:100AE00041F0100181827047818A21F010018182DA
:100AF0007047002904D0818A41F008018182704743
:100B0000818A21F0080181827047828A22F00402E2
:100B10008282828A0A4382827047002904D0818AB5
:100B200041F0020181827047818A21F002018182B5
:100B300070470246002012880A4200D00120704708
:100B40008A05C9430180704770B5002440F66A12D7
:100B5000C1F3421301F01F05012606FA05F2012B2D
:100B60000CD0022B0DD0838A1340090A8E400088D6
:100B700030400BB100B10124204670BD8389134081
:100B8000F3E7038A1340F0E740F66A120A0A0121EC
:100B90009140C94301807047003801400044004043
:100BA00000480040004C00400050004029490843E4
:100BB000294908607047F0B50F23C27801260178F3
:100BC0004FF0E027002A1BD0234A126802F4E062AB
:100BD000C2F5E062120AC2F10404D3404578A54090
:100BE00082781A402A4312011C4BCA54007800F044
:100BF0001F018E40400907EB8000C0F80061F0BD86
:100C000001F01F008640480907EB8000C0F88061B2
:100C1000F0BD134A114001430F48001F01607047A7
:100C20000D4A121D002903D011680143116070475D
:100C300011688143116070474FF0E021042804D00F
:100C4000086920F0040008617047086940F004005A
:100C5000086170470000FA050CED00E000E400E0D8
:100C600080FFFF1F10B50120FFF743FDBDE81040D6
:100C70000020FFF73EBD2049086070471E49091F4C
:100C8000086070471C498431086070471B4A11880E
:100C900021F46071014311807047184A118821F0D6
:100CA0007F0101431180704708B5144A2C3A104463
:100CB00000900098016008BD08B510492C3908441F
:100CC00000900098008808BD0B489C300068C0B2B6
:100CD00070470A480830018841F0010101807047DF
:100CE0000548A0300068C0B2704704480830018849
:100CF00041F002010180704704860D422C6C0040D7
:100D000010B59749884209D101210420FFF7DBFC87
:100D10000021BDE810400420FFF7D5BC914988426E
:100D200009D101210820FFF7CEFC0021BDE81040C9
:100D30000820FFF7C8BC8C49884209D10121102046
:100D4000FFF7C1FC0021BDE810401020FFF7BBBC3D
:100D50008649884209D101212020FFF7B4FC0021F7
:100D6000BDE810402020FFF7AEBC8149884209D180
:100D700001214020FFF7A7FC0021BDE810404020E2
:100D8000FFF7A1BC7B49884209D101218020FFF7F0
:100D90009AFC0021BDE810408020FFF794BC764902
:100DA00088420AD1841501212046FFF78CFC204699
:100DB000BDE810400021FFF786BC10BD10B5012131
:100DC0000846FFF780FC0021BDE810400120FFF736
:100DD0007ABC2DE9F0410022CC7804F00F03E40640
:100DE000002C01DA8C7823430C780F274FF0010C8C
:100DF000E4B105680CFA02F40E882640A64211D12F
:100E0000960007FA06F825EA080503FA06F848EA04
:100E10000505CE78282E02D0482E02D002E044618B
:100E200000E00461521C082AE4D305600A88FF2A06
:100E30001ED94568002202F108060CFA06F40E8855
:100E40002640A64210D1960007FA06F825EA0805C2
:100E500003FA06F848EA0505CE78282E00D1446149
:100E6000CE78482E00D10461521C082AE3D3456095
:100E7000BDE8F0814FF6FF710180022181700421ED
:100E8000C17070470246002092680A4200D00120DB
:100E90007047806880B2704702460020D2680A42DC
:100EA00000D001207047C06880B270470161704770
:100EB00041617047002A01D001617047416170476C
:100EC000C160704741F480328261816182618169D1
:100ED0008069704710B5294B1A684FF6807422401C
:100EE00042EA00100843186010BD2549C8617047E8
:100EF000F0B5224D6B68C0F30342440D260184B265
:100F0000C0F30157B440032F07D0C0020CD5032013
:100F10009040834343F0706209E023F07062686898
:100F200020F07060686002E0A34343F0706201B19A
:100F300022436A60F0BD10B58A07120F0F23934059
:100F400021F003040D4921448C689C438C608B681C
:100F5000904003438B6010BD0A4908607047000051
:100F600000080140000C0140001001400014014045
:100F700000180140001C0140002001400000014019
:100F800000002042DC00204210B5FE4988420AD110
:100F9000C41401212046FFF796FB2046BDE810400F
:100FA0000021FFF790BBB0F1804F0CD0F64988428A
:100FB00013D101210220FFF791FB0021BDE8104071
:100FC0000220FFF78BBB01210846FFF787FB0021BA
:100FD000BDE810400120FFF781BBEC49884209D1F0
:100FE00001210420FFF77AFB0021BDE81040042016
:100FF000FFF774BBE649884209D101210820FFF7B9
:101000006DFB0021BDE810400820FFF767BBE149F8
:10101000884209D101211020FFF760FB0021BDE8C3
:1010200010401020FFF75ABBDB49884209D101214B
:101030002020FFF753FB0021BDE810402020FFF7E0
:101040004DBBD64988420AD1441401212046FFF7FE
:101050003AFB2046BDE810400021FFF734BB10BD2D
:10106000028802F08F020280CA884B881A430388E4
:101070001A4302808A8882850A880285C14A904282
:1010800002D0C64A904201D1097A018601218182AB
:10109000704730B5028C22F001020284058C8388EF
:1010A000028B22F070020C88144325F002020D8995
:1010B00015434A882A43CD888586B24DA84202D07E
:1010C000B64DA8420FD122F008054A892A4322F0E2
:1010D00004058A882A4323F4014323F402438D89BB
:1010E0001D43CB892B4383800483028430BD70B5BC
:1010F000028C22F010020284028C8388048B24F478
:10110000E0460D884FF6FF7404EA0525354322F0CA
:1011100020020E8904EA061616434A8804EA0212DF
:101120003243CE880687974EB04202D09B4EB042E3
:1011300017D122F080024E8904EA0616164326F0E3
:1011400040068A8804EA0212324323F4044323F45B
:1011500008438E8904EA86061E43C98904EA81038E
:10116000334383800583028470BD70B5028C22F402
:1011700080720284028C8388848B24F070040D8832
:10118000254322F400720E894FF6FF7404EA062606
:1011900016434A8804EA02223243CE888687794E73
:1011A000B04202D07D4EB04217D122F400664A8987
:1011B00004EA0222324322F480668A8804EA022288
:1011C000324323F4104323F420438E8904EA0616A5
:1011D0001E43C98904EA0113334383808583028453
:1011E00070BD70B5028C22F480520284058C828816
:1011F000838B23F4E0460C884FF6FF7303EA042444
:10120000344325F400560D8903EA053535434E88ED
:1012100003EA06362E43CD88A0F84050594DA84227
:1012200002D05E4DA84205D1C2F30D05898903EABB
:1012300081122A4382808483068470BD828B22F4CB
:1012400040628283828B4FF6FF7303EA01210A43D7
:101250008283704770B5048C24F480540484858B99
:10126000068C4FF6FF7404EA013125F4734504EA55
:1012700002222A4304EA0333134326F400520A43AA
:1012800042F480518383018470BD828B22F00C0272
:101290008283828B0A4382837047F0B5048C24F4E6
:1012A00080740484868B058C4FF6FF7707EA01244F
:1012B00026F0F30607EA03111143314325F40072C7
:1012C000224342F4807281830284F0BD028B22F4B7
:1012D00040620283028B4FF6FF7303EA01210A4347
:1012E0000283704770B5048C24F010040484058BCD
:1012F000068C4FF6FF7404EA011125F4734504EAE5
:1013000003332B4304EA02221A4326F020030B4343
:1013100043F010010283018470BD028B22F00C02A5
:101320000283028B0A430283704770B5048C24F059
:1013300001040484058B048C25F0F3054FF6FF7639
:1013400006EA031313432B4324F002020A4342F03C
:1013500001010383018470BD70B506460C462588E3
:101360006188A2882389002D1AD0042D20D0082D51
:1013700026D03046FFF76EFFE1883046BDE870406A
:101380005CE70000002C0140000400400008004021
:10139000000C0040001000400014004000340140E8
:1013A0003046FFF7C2FFE1883046BDE87040B4E741
:1013B0003046FFF797FFE1883046BDE8704085E78B
:1013C0003046FFF76AFFE1883046BDE870405CE7D1
:1013D0002DE9F04107460C460025012661880029C9
:1013E00000D10225A288012A00D102262088238963
:1013F00088B13846FFF776FFE1883846FFF766FF89
:101400002389324629463846FFF78FFFE188384660
:10141000BDE8F04181E73846FFF787FFE1883846AD
:10142000FFF77BFF2389324629463846FFF75AFFEC
:10143000E1883846BDE8F04148E710B50A884B8896
:10144000CC881A438B8823431A430B891A434B8950
:1014500089891A430A43A0F8442010BD4FF6FF7152
:10146000818000210180C18041800172704700218C
:10147000018041808180C180018141818181C18160
:10148000704700210180418001228280C18001815A
:1014900070470021018041808180C18001814181AC
:1014A00081817047002904D0018841F00101018049
:1014B0007047018840F2FE321140018070470029D8
:1014C00005D030F8441F41F400410180704730F8E6
:1014D000441FC1F30E0101807047002A03D08289A6
:1014E0000A438281704782898A4382817047818260
:1014F00070471143A0F848107047002A03D0828932
:101500000A438281704782898A43828170470189B8
:1015100021F0070101817047028922F070020A431D
:101520000281704700B503461846FFF7F5FF18899A
:1015300040F00700188100BD70B50D460446114605
:10154000602D0CD001222046FFF7EFFE29462046F1
:10155000FFF7E2FF208940F00700208170BD0122E3
:101560002046FFF7BFFEF1E730B50489E4B24FF63D
:10157000FF7505EA032313430B432343038130BD67
:1015800010B504462046FFF7EFFF208920F0070042
:1015900040F0070020F0700040F07000208110BD86
:1015A00010B504462046FFF7DFFF208940F4804055
:1015B000208110BD018582827047028840F28F33FE
:1015C0001A400A430280704770B50589048B068C67
:1015D00025F007050D434FF6FC410C4040F2011188
:1015E0000C4326F022064FF6FF7101EA0311114366
:1015F000314305810483018470BD028B22F07002A7
:101600000A4302837047028B22F4E0424FF6FF73D5
:1016100003EA0121114301837047828B22F070029B
:101620000A4382837047828B22F4E0424FF6FF73B5
:1016300003EA0121114381837047002904D0018806
:1016400041F0800101807047018840F27F321140F3
:1016500001807047002904D0818841F00401818015
:101660007047818821F0040181807047002904D0EF
:10167000818841F0080181807047818821F008014C
:1016800081807047002904D0818841F00101818068
:101690007047818821F0010181807047028B22F020
:1016A00008020A4302837047028B22F400624FF65D
:1016B000FF7303EA0121114301837047828B22F0FB
:1016C00008020A4382837047828B22F400624FF63D
:1016D000FF7303EA0121114381837047028B22F0DB
:1016E00004020A4302837047028B22F480624FF6A1
:1016F000FF7303EA0121114301837047828B22F0BB
:1017000004020A4382837047828B22F480624FF680
:10171000FF7303EA0121114381837047028B22F09A
:1017200080020A4302837047028BC2F30E024FF617
:10173000FF7303EA0121114301837047828B22F07A
:1017400080020A4382837047828BC2F30E024FF6F7
:10175000FF7303EA0121114381837047028C22F059
:1017600002020A4302847047028C22F008020A43F4
:1017700002847047028C22F020024FF6FF7303EAC6
:101780000111114301847047028C22F080024FF650
:10179000FF7303EA0111114301847047028C22F4A4
:1017A00000724FF6FF7303EA012111430184704771
:1017B000028C22F400624FF6FF7303EA0121114309
:1017C00001847047028C22F400524FF6FF7303EA43
:1017D000013111430184704710B501238B40048C03
:1017E0009C430484038C8A401343038410BD10B5CA
:1017F00004238B40048C9C430484038C8A40134351
:10180000038410BD30B500F1180301248C40058C11
:10181000A5430584002912D0082910D0091FC1F35F
:101820004E001844016848F6FF73194001600168D2
:101830004FF6FF7303EA02221143016030BD03EB50
:10184000510001684FF68F73194001600168114320
:10185000016030BD002904D0018841F002010180FF
:101860007047018840F2FD32114001807047002925
:1018700004D0018841F0040101807047018840F2E2
:10188000FB32114001807047002904D0818841F06B
:10189000800181807047818821F0800181807047BC
:1018A000028840F2F7331A40028002880A4302801D
:1018B0007047828822F07002828082880A43828088
:1018C0007047028922F00702028102890A430281DD
:1018D0007047028922F08002028102890A43028154
:1018E0007047818470478185704781867047018782
:1018F000704781877047A0F8401070470288D2B2C5
:10190000028002880A4302807047808E7047008FF1
:101910007047808F7047B0F840007047808C7047E8
:10192000008D704702460020128A0A4200D0012032
:101930007047C9430182704702460020138A0B405A
:1019400092890A40002B02D0002A00D00120704763
:10195000C94301827047000010B5DD4988420AD1B1
:10196000441501212046FEF7AEFE2046BDE810409A
:101970000021FEF7A8BED74988420AD104150121EB
:101980002046FEF7A0FE2046BDE810400021FEF7ED
:101990009ABED14988420AD10121CC032046FEF7E4
:1019A00092FE2046BDE810400021FEF78CBE10BD1F
:1019B00010B54268C94B1A400C790B6842EA042200
:1019C000134343608268C64B1A40D1E90243234364
:1019D0004C7942EA440213438360C26A22F47002E3
:1019E000097C491EC9B242EA0151C16210BD002101
:1019F0000160017141718160C16001210174704712
:101A0000002904D0816841F001018160704781683C
:101A100021F0010181607047002904D0816841F400
:101A2000807181607047816821F4807181607047A6
:101A3000C9B2002A03D042680A4342607047426834
:101A40008A4342607047816841F0080181607047B5
:101A50000146002089680907002900DA0120704743
:101A6000816841F004018160704701460020896867
:101A70004907002900DA01207047002904D0816855
:101A800041F4A00181607047816821F4A001816068
:101A900070470146002089684902002900DA0120C8
:101AA0007047426822F46042491E42EA4131416077
:101AB0007047002904D0416841F4006141607047DB
:101AC000416821F400614160704770B5072609291B
:101AD0000AD9C568A1F10A0404EB4404A640B54341
:101AE000A3401D43C56007E0056901EB4104A64022
:101AF000B543A3401D4305611F23072A09D2446B48
:101B0000521E02EB820293409C4391400C4344637B
:101B100070BD0D2A09D2046BD21F02EB82029340E2
:101B20009C4391400C43046370BDC46A0D3A02EBC0
:101B3000820293409C4391400C43C46270BD0029D3
:101B400004D0816841F4801181607047816821F47C
:101B5000801181607047C06C80B270475C484C3027
:101B600000687047002904D0416841F480614160F9
:101B70007047416821F4806141607047002904D0BA
:101B8000416841F4805141607047416821F48051BF
:101B900041607047826822F4E0420A4382607047E5
:101BA000002904D0816841F4004181607047816858
:101BB00021F4004181607047002904D0816841F41C
:101BC000021181607047816821F4021181607047C1
:101BD0000146002089688902002900DA0120704747
:101BE00070B5072609290AD9C568A1F10A0404EBD2
:101BF0004404A640B543A3401D43C56007E0056902
:101C000001EB4104A640B543A3401D430561836B2E
:101C1000C3F30154121B921C02EB82021F24944056
:101C2000A34391400B43836370BD826B22F4401247
:101C3000491E42EA01518163704708B5009000983F
:101C4000084400900098026008BD08B50090009814
:101C50000844283000900098006880B208BD4268AF
:101C6000204B1A400A4342607047416282627047CB
:101C7000426822F01F020A4342607047144908314B
:101C8000002804D0086840F4000008607047086825
:101C900020F40000086070470246002012680A42E3
:101CA00000D001207047C9430160704710B502465B
:101CB00000200B0A5468C9B20C401168194202D0C6
:101CC000002C00D0012010BD090AC94301607047F3
:101CD0000024014000280140003C0140FFFEF0FFCD
:101CE000FDF7F1FFFFFD3FFFF84A116801F03801F1
:101CF000014311607047F5490A6822F008020A6042
:101D00000A6802430A607047F0490A6822F010022C
:101D10000A600A6802430A607047EC48EC49416077
:101D2000EC4941607047E948016941F08001016177
:101D300070470420E549CA68D20701D001207047E6
:101D4000CA68520701D502207047C968C906FBD589
:101D50000320704708B5FF20009002E00098401E65
:101D6000009000980028F9D108BD10B50446FFF78F
:101D7000E0FF04E0FFF7EEFFFFF7DBFF641E012842
:101D800001D1002CF6D1002C00D1052010BD70B57A
:101D9000054640F6FF763046FFF7E7FF042813D1EB
:101DA000CA4C206940F0020020616561206940F062
:101DB000400020613046FFF7D8FF052804D0216994
:101DC00041F6FD721140216170BD70B540F6FF759E
:101DD0002846FFF7CAFF042812D1BC4C206940F006
:101DE00004002061206940F0400020612846FFF790
:101DF000BCFF052804D0216941F6FB721140216126
:101E000070BD70B540F6FF752846FFF7AEFF042899
:101E100018D1AE4CAE48A060AE48A060206940F03A
:101E200020002061206940F0400020612846FFF733
:101E30009CFF41F6EF75042805D0052802D02169E2
:101E40002940216170BD206941F6DF7108402061A1
:101E5000206940F0100020619F49A52008800F20D4
:101E6000FFF783FF0528EDD021692940216170BD6E
:101E7000F8B505460E46002000900F20FFF775FFCD
:101E8000042811D1914C206940F0010020612E807E
:101E90000F20FFF76AFF41F6FE77042805D00528DA
:101EA00002D0216939402161F8BDAD1C009500992F
:101EB000300C08800F20FFF758FF0528F4D0216967
:101EC00039402161F8BD70B506460D460F20FFF779
:101ED0004CFF04280FD17D4C206940F001002061A7
:101EE00035800F20FFF741FF052804D0216941F616
:101EF000FE721140216170BD70B506460D460F207F
:101F0000FFF733FF042813D1704C7148A06071486B
:101F1000A060206940F01000206135800F20FFF79D
:101F200024FF052804D0216941F6EF721140216198
:101F300070BD2DE9F041C043C4B2C0F30725C0F322
:101F40000746070E0F20FFF710FF04283CD1DFF8EB
:101F50007C815F49C8F808105E49C8F80810D8F8B5
:101F6000101041F01001C8F81010FF2C05D05A488D
:101F7000083004800F20FFF7F8FE042807D1FF2D5A
:101F800005D055480A3005800F20FFF7EEFE0428E3
:101F900007D1FF2E05D050480C3006800F20FFF7E8
:101FA000E4FE042807D1FF2F05D04B480E300780F0
:101FB0000F20FFF7DAFE052806D0D8F8101041F6FA
:101FC000EF721140C8F81010BDE8F08170B50546F9
:101FD00040F6FF763046FFF7C8FE042818D13B4C88
:101FE0003B48A0603B48A060206940F02000206191
:101FF000206940F0400020613046FFF7B6FE41F610
:10200000DF71042805D0052802D022690A40226128
:1020100070BD206908402061206940F010002061F7
:102020002D4815B10021018001E0A5210180304635
:10203000FFF79BFE0528EBD0216941F6EF721140B6
:10204000216170BD2DE9F04106460D4617461F4C33
:102050001F48A0601F48A0600F20FFF786FE0428DD
:10206000B2D1206940F0100020613D431A49354348
:10207000891C45F0F80008800F20FFF776FE052840
:10208000A2D0216941F6EF72114021619CE70F480F
:10209000C069800870470D48006A704700200B49EE
:1020A000C9698907002900DA012070470020074923
:1020B00009688906002900DA01207047034A0029CF
:1020C0000CD01169014311617047000000200240EB
:1020D00023016745AB89EFCD00F8FF1F11698143EC
:1020E0001161F1E701460020074A012904D0D268B6
:1020F0000A42E9D00120E7E7D169C907E4D001200D
:10210000E2E70149C860DFE70020024000B585B082
:102110006846FEF749FA01984FF47A61B0FBF1F096
:10212000B0F1807F0CD220F07F414FF0E020491EBB
:1021300041615F4AF0211170002181610721016135
:1021400005B000BDE2E701F041BA10B50024012856
:1021500005D0584A02280AD0032815D10EE04FF4C2
:1021600080715548FEF78EFE70B101240CE001210C
:102170001046FEF787FE38B1012405E00421104621
:10218000FEF780FE00B10124204610BD10B54A4A7A
:10219000484C4FF40071002809D0012810D00328C2
:1021A00013D12046BDE810400821FEF781BE10463D
:1021B000FEF77EFE2046BDE810400821FEF778BEFF
:1021C000BDE810401046FEF773BE10BD10B53A4A88
:1021D000384C4FF40071002809D0012810D0032892
:1021E00013D12046BDE810400821FEF75FBE10461F
:1021F000FEF75CFE2046BDE810400821FEF756BE03
:10220000BDE810401046FEF751BE10BD2DE9F0416B
:10221000DFF8A480274E08254FF40077002814D05B
:10222000012832D0032841D13046FEF73CFE80F031
:10223000080404F008013046FEF738FE25EA0401E0
:102240003046BDE8F041FEF733BE4046FEF72BFEB8
:1022500080F4007404F400714046FEF727FE27EA7C
:1022600004014046FEF724FE3046FEF71CFE80F0D7
:10227000080404F008013046FEF718FE25EA0401C0
:102280003046BDE8F041FEF713BE4046FEF70BFEB8
:1022900080F4007404F400714046FEF707FE27EA5C
:1022A00004014046BDE8F041FEF702BEBDE8F08102
:1022B00023ED00E000080140000C014066494FF0AA
:1022C0000070486070474FF0204043F20101016008
:1022D00043F60A7141606FF07041C0F80411704715
:1022E00010B5FEF767F84FF480342046FEF781F80A
:1022F000FEF7ADF80020FEF708F90020FEF713F90D
:10230000A011FEF709F96010FEF723F90220FFF78C
:10231000EBFC1020FFF7F8FC4FF4E0112046FEF72D
:10232000B9F80120FEF7BEF83920FEF77BF8002847
:10233000FAD00220FEF7DDF8FEF7E2F80828FBD11C
:10234000FFF7C1FFBDE81040B8E710B50121042038
:10235000FEF798F901210820FEF794F901211020D9
:10236000FEF790F901212020FEF78CF90121402091
:10237000FEF788F93A4939480860091F394808606A
:10238000374940F2C730083108603748016801F426
:102390007F4101600168354A114301603249344888
:1023A000091F0860304949F6FF700831086032485B
:1023B000304941603149016043F6FF71C1603149E4
:1023C0002F480860091F304808602E494C2008310A
:1023D00008602E48016801F07041016001682C4AD4
:1023E0001143016029492B48091F086027497F20B4
:1023F0000831086010BD704770B504460D463C2C8E
:1024000008D201F0E7F8244941F82450BDE87040B3
:1024100001F0E4B870BD10B5002420492046FFF754
:10242000EBFF641C3C2CF8D310BD00B585B06846AA
:10243000FEF7BAF8019805B000BDF6E710B54021E7
:10244000174805F090FF16484FF40851343881873B
:1024500042F20411C18710BD000001401181FA1839
:102460000408014088180088040C0140EE00111196
:1024700011888888118D88140010014088881811EF
:102480001191119904140140998899B804180140D8
:102490009919110118888898AC030020F7230008C7
:1024A000BC54002070B50446864D2978012906D118
:1024B0004FF4D251844805F056FF002129700A2CB0
:1024C00006D00B2C0AD00C2C0FD00D2C1AD113E0F7
:1024D00014217E4802F08AFE686013E07B481421D4
:1024E000503002F083FEA8600CE077481421A03839
:1024F00002F07CFEE86005E073481421503802F0D9
:1025000075FE2861012070BD2DE9F04107460325C5
:102510006D4E10E00024C4EB0412C2EBC200305C2C
:1025200080B1641CE4B2402CF5D300220A2311468A
:10253000104601F084F82800A5F10105EDB2E9D1BB
:10254000BDE8F08103F08AFE0546C4EB0410C0EB41
:10255000C004A01980466922394605F0EBFE01202F
:102560003055284603F07EFE4046E9E770B50D463B
:10257000002400280DD0FFF7C7FF01001ED05148EE
:102580000A2D08D00B2D0BD00C2D0ED00D2D15D1F2
:1025900010E0204670BD406802F0B4FF01240DE059
:1025A000806802F0AFFF012408E0C06802F0AAFFD3
:1025B000012403E0006902F0A5FF0124204670BD5C
:1025C000F8B50646002500244148006890F832001E
:1025D0003C4A0A2806D00B280AD00C280ED00D2819
:1025E00017D111E06946506802F0D0FD044610E0B2
:1025F0006946906802F0CAFD04460AE06946D06860
:1026000002F0C4FD044604E06946106902F0BEFD14
:1026100004466CB103F022FE05466922214630468D
:1026200005F088FE00202070284603F01BFE0125DF
:102630002846F8BD38B5234C00250A2806D00B28BB
:102640000DD00C281DD00D2808D111E06946606816
:1026500002F09CFD002800D00570F7D138BD694616
:10266000A06802F093FD002800D00570F7D138BDB6
:102670006946E06802F08AFD002800D00570F7D1B5
:1026800038BD6946606902F081FD002800D0057000
:10269000F7D138BD0B4B0B2808D00C280BD00D28D8
:1026A0000ED100220121186902F0DBBD00220121B8
:1026B000986802F0D6BD00220121D86802F0D1BD91
:1026C0007047000018000020DC0500209C0400205A
:1026D0005400002070477047F749496B081AB0F55D
:1026E000FA7F02D9F54804F0CDBB7047012070474E
:1026F0002DE9F041002700240022F248DFF8C083D2
:10270000B0F800C03FE0002140F2E93302FB03F0E3
:1027100008EB400541F650002E5A30E005EB8100F1
:1027200041F65303C05C182826D00CDC122824D2B2
:10273000DFE800F0231E1E2323232323231E1E2352
:10274000232323232020272817D005DC1E2813D07D
:1027500013DC1A2811D10FE0392809D004DC29280C
:102760000BD0382809D103E03E2801D03F2804D1FE
:10277000012402E0012400E00127491C89B28E42B5
:10278000CCD8521C92B29445BDD8012F09D001205B
:1027900004F0EFFA012C08D0BDE8F041002004F06D
:1027A000EABA012004F0E7FAF4E7BDE8F0410020BE
:1027B00004F0DFBA2DE9E043C14D002642F634575C
:1027C00004EBC40005EB800842F64A5038F80000DC
:1027D00005F0DDFDC4EBC40101EB041105EB810143
:1027E00042F66062895805F0E1FD04D2C4EBC400F2
:1027F00005EB4000C653002040F2093304FB03F10F
:1028000005EB810342F6525108EB010C42F64451AC
:10281000122235F8018017E0B0FBF2F101EBC1099B
:1028200002FB110103EB890909EB4101BCF800909F
:102830000989494506D2C4EBC40005EB4000C653E4
:10284000BDE8E083401CC0B28045E5D8F8E72DE93B
:10285000F04F8BB0804600200890079006900590BE
:10286000954843F69821406B88427DD30020019023
:10287000029003900490002140F20932904B08FB33
:1028800002F003EB800508EBC80003EB800442F67E
:10289000465004EB000A42F6505004EB000C4FF097
:1028A00012090126BAF8000013E0B1FBF9F202EBBD
:1028B000C20709FB121205EB870707EB4202BCF8BF
:1028C00000701289BA4202D98DF8046003E0491CF5
:1028D000C9B28842E9D800214FF4487C20E0B1FB1E
:1028E000F9F202EBC20709FB121205EB870707EBAF
:1028F000420242F652571289E75BBA4204D262455D
:1029000002D98DF8056003E0624501D28DF81060B0
:102910009DF8102012B19DF805201AB9491CC9B2C2
:102920008842DCD800211EE0B1FBF9F202EBC207BD
:1029300009FB121205EB870707EB420242F6545CD3
:10294000B2F8F87334F80CC0674501D98DF80A6005
:1029500042F65657B2F8F025E75BBA4201D98DF836
:102960000B60491CC9B200E001E1C8EBC802544F3A
:1029700002EB081207EB820242F66067DFF848B10B
:1029800017448842D0D842F64850205A05F0FFFC40
:10299000396805F001FD01D28DF8066042F64A5013
:1029A000205A05F0F4FC396805F000FD04D23868BF
:1029B000584501DD8DF807603868584501DC8DF811
:1029C000116042F66850205A012840D100273AE0B1
:1029D000B7FBF9F000EBC00109FB107005EBC1017A
:1029E00001EB800BDBF8E8070A9042F65850205EB6
:1029F00005F0C4FC0A9905F0CFFC07D23348DBF898
:102A0000E817814202D08DF808601AE0DBF8E80789
:102A1000099042F65A50205E05F0B0FC099905F085
:102A2000C5FC07D22948DBF8E817814202D08DF8AF
:102A3000096006E02548DBF8E817814201D18DF8EE
:102A40000E607F1CFFB2BAF80000B842C0D89DF8F3
:102A500004201AB1089840F0010002E0089820F024
:102A600001009DF8051011B140F0020001E020F0D6
:102A7000020012B140F0040001E020F0040011B1A6
:102A800040F0080001E020F008009DF8081011B1A6
:102A900040F0100001E020F010009DF8091011B185
:102AA00040F0200001E020F020009DF80A1079B1EC
:102AB00040F040000EE000008854002058850008D7
:102AC0001C200020604D00200000404000FA7A47A2
:102AD00020F040009DF80B1011B140F0800001E0A3
:102AE00020F080009DF80C1011B140F4807001E0DE
:102AF00020F480709DF80D1011B140F4007101E0D8
:102B000020F40071069800F40042BDF81200104352
:102B10009DF8112012B140F4004201E020F400427F
:102B20009DF8100018B1059840F0010002E00598EA
:102B300020F001009DF80E3013B140F0020001E0DA
:102B400020F002009DF80F3013B140F0040301E0C3
:102B500020F0040307484FF42E5400EBC800215224
:102B6000A41C07990153A11C4252891C43520BB06B
:102B7000BDE8F08F1C20002010B5FDF765FB01219A
:102B80006920FDF77FFD0121BDE810404804FDF7F5
:102B900084BD10B504F058F904F09EF905F0F1F980
:102BA000BDE8104004F012BD62486349406B4A68BA
:102BB000821AB2F5FA7F0BD948600878401C087079
:102BC000C00702D0002004F0ADB8002004F0ACB87B
:102BD0007047704708B5574C666B0027002157486F
:102BE00004F062F84FF47A75FFF7DEFF3946684665
:102BF000FFF77CFD0746FFF77BFD3046FFF76CFDD6
:102C0000FFF7E7FF207D012808D0606BA06200225B
:102C100005231146104600F012FDE5E7A16A606B3E
:102C2000401AA842F3D946480168464A01F4E061D7
:102C300011430160BFF3408FFEE710B50446204604
:102C400004F010FD404941F8240004EB44003F4BE0
:102C500000EB841203EB820000F1090143F822101B
:102C600041600021017210BD0B2809D00C280DD045
:102C70000D2811D10D23364A0021364802F0DBBF62
:102C80000B23354A0021354802F0D5BF0C23344AC6
:102C90000021344802F0CFBF7047FFF753FA0A20F3
:102CA000FFF700FC0C20FFF7FDFB0D20FFF7FAFB00
:102CB00003F08AFB0B23284A0021284802F0BBFFBF
:102CC0000D23234A0021234802F0B5FF0C23244A98
:102CD0000021244802F0AFFFFFF77CFF08B5184938
:102CE0002148091F0860FFF747FFFFF72CFA04F09F
:102CF000ABF804F0F1F8FFF7A1FB04F067FC05F076
:102D000040F901F047FB0A23184A0021184802F055
:102D100092FF6A4617A10A2003F048F901F0BAFBB6
:102D2000002008BD70477047704770477047704774
:102D3000704700008854002034000020D08500082F
:102D40000CED00E00400FA053C890020484F00200B
:102D5000C45D0020552F0008C46D0020C92E000856
:102D6000C4650020832E000800800008C4550020A0
:102D70009B2C00085374617274205461736B0000C3
:102D800010B5032004F06EFC4B49C86010BD10B5AF
:102D90004A4C207804F066FC474A217842F821002A
:102DA00001EB4100464B00EB811203EB820000F186
:102DB000090143F8221041600021017210BD024652
:102DC00008280FD0092A19D00C2A0AD1C878897886
:102DD00000EB0120C0B2A0F58150052190FBF1F07D
:102DE000C0B27047C878897800EB0120C0B2A0F566
:102DF0004060032190FBF1F0C0B27047C878897839
:102E000000EB0120C0B2A0F54560062190FBF1F077
:102E1000C0B270470246082813D0092A21D00C2AD4
:102E20000ED1C878897800EB012080B2A0F58150DE
:102E3000052190FBF1F201FB120000F5815080B2F8
:102E40007047C878897800EB012080B2A0F5406017
:102E5000032190FBF1F201FB120000F5006080B24B
:102E60007047C878897800EB012080B2A0F54560F2
:102E7000062190FBF1F201FB120000F5056080B223
:102E800070470C20FFF70EFBFFF781FF0D4C012070
:102E9000E0600A4D01228021287800F093F8606BF1
:102EA0006062287800F02CFB0022052311461046B2
:102EB00000F0C5FBF3E700003C8900203000002053
:102EC000484F002088540020044C606BE0610022D1
:102ED00005231146104600F0B2FBF6E788540020A7
:102EE00008787047F0B5ADF5017D064606EB460063
:102EF0001F4F00EB861507EB850457F82510601A65
:102F000000F2091082B21B4850F8260004F046FE79
:102F1000C1B2002299B1227257F82500014447F846
:102F2000251004F20910814202D3093447F82540E4
:102F300001A93046FFF7D4FF0DF5017DF0BD207AE1
:102F4000401CC0B22072FB28F6D9227257F8250027
:102F50006060F1E70020FFF770FE0020FFF7C2FF7E
:102F6000002205231146104600F069FBF5E700003A
:102F7000484F00203C890020010A01EB002080B26C
:102F80007047F8B506460C461546E81EC1B2A1705A
:102F9000E01C03F02DFE00906019BDF800100180C8
:102FA000AD1CEDB2A078801CA070FA482A462146DC
:102FB00050F8260004F010FEA84201D10120F8BD0F
:102FC0000020F8BD17B585B003465A208DF80000E3
:102FD000A5208DF80100002203208DF802208DF835
:102FE00003108DF80400BDF81C00FFF7C5FF079023
:102FF000BDF81C00ADF805000724224669461846B6
:10300000FFF7BFFF204608B010BD10B586B00346DD
:103010005A208DF80400A52002218DF80500002219
:1030200003208DF8062081228DF807208DF80800F6
:1030300006248DF80910224601A91846FFF7A1FFC2
:1030400006B0204610BD10B588B003465A208DF852
:103050000000A5208DF8010000218DF802108220CB
:103060008DF803008DF8041006248DF80510224613
:1030700069461846FFF785FF2046C4E71FB503469B
:103080005A2001218DF80000A5208DF801000020B4
:103090008DF8020080208DF803008DF804100624BE
:1030A0008DF80510224669461846FFF76AFF20464C
:1030B00004B010BD1FB503465A2101208DF8001041
:1030C000A5218DF8011000218DF8021080218DF8C6
:1030D00003108DF804003F2106248DF805102246C8
:1030E00069461846FFF74DFF2046E1E7012070478B
:1030F0000020704700207047002070470120704773
:1031000010B51346802B05D049B101290AD00229F8
:103110000DD10AE00A461946FFF754FF07E0FFF712
:10312000E5FF04E0FFF7E4FF01E0FFF7E3FF012024
:1031300010BD70B50546984CD4E90C10411A97485B
:10314000814208D90120E0609548814206D928468D
:10315000FFF794FF02E02846FFF7ACFFA08980222A
:1031600081B22846FFF7CCFFBDE87040642000F034
:1031700043BAF0B50027D0E90042A31A944201D324
:10318000DEB200E0DEB20B2E24D3002300F20915DC
:1031900000F1090492F800C001F803C0521CAA42D1
:1031A00000D322465B1CDBB20B2BF3D38B78DB1CEA
:1031B000B34211D80B2307E012F8016BCE54AA4298
:1031C00000D322465B1CDBB28E78F61C9E42F3D8FD
:1031D0004260FF273846F0BD3846F0BD70B5002488
:1031E0000DE0E50705D0161906440D5D06F8015CF3
:1031F00003E0161906440D5D7570641CE4B29C4230
:10320000EFD370BD2DE9F04F9DB00C46269D1846BA
:10321000FF211C9107264FF002084FF001094FF0E3
:10322000100AEFB20DF1040B0D2A54D2DFE802F0C0
:103230005353535353535353530753532A008DF847
:1032400005808DF806908DF8074000208DF8080065
:103250008DF809A008208DF80A0050208DF80B0089
:103260008DF80C7000200AE006EB40010A19537833
:103270000BEB40025372615C9172401CC0B2A842D9
:10328000F2D328E069060B0E0246E11D4548FFF720
:10329000A5FF8DF805808DF806908DF80740FF207A
:1032A0008DF8080006208DF809008DF80AA020206E
:1032B0008DF80B008DF80C7000200AE006EB400141
:1032C0000A1953780BEB40025372615C9172401CF7
:1032D000C0B2A842F2D31C981DB0BDE8F08F82B0F6
:1032E0000A7A8DF80420CA798DF805208A7A8DF83B
:1032F0000620497A8DF8071027494A6B0A6302B005
:10330000D8E6F8B5069DFF26CC78812C06D0832C14
:1033100004D11B2A04D00095FFF774FF3046F8BD96
:103320000095FFF7DCFFF9E710B50144491E8CB2A8
:1033300001211D4A32F82130834207D802EB810374
:103340005B885B1EA34201DBC8B210BD491C89B279
:103350001B29EFD9002010BDF8B50C460746002503
:10336000E178832903D1A078C01CC0B2A579401FA1
:1033700081B2E01C03F055FCA178621CC3B28A5CE8
:10338000934204D1A21C895CB1EB102F0ED0102007
:10339000F8BD00003C8900208854002080841E0075
:1033A00040592000444D0020608500086079217953
:1033B00040EA0126E9B23046FFF7B6FF024632B1D5
:1033C0007E48711900EB82035B88994201D9022083
:1033D000DEE710F82200301AFF2101EA4000C3B2F4
:1033E000214638460095FFF78CFFD1E72DE9F843D9
:1033F00007460C46FF260025E078832802D0812866
:1034000005D00AE0A078C01CC1B2A57905E0E0793A
:10341000A27900EB02201FFA80F8491F89B2E01C54
:1034200003F0FFFBA178621CC3B28A5C934204D113
:10343000A21C895CB1EB102F01D0102630E0E0789F
:10344000832802D0812828D02AE06079217940EAB7
:103450000126A6F50050B0F5106F01D81B2204E03C
:10346000E9B23046FFF760FF024632B153487119A6
:1034700000EB82035B88994201D9022610E010F824
:103480002200301AFF2101EA4000C3B2214638462B
:103490000095FFF736FF064602E04948C0F80C8069
:1034A0003046BDE8F88370B50026056820E0AC1A08
:1034B00023B2002B02DA04F5807423B2022B15DB51
:1034C00013785A2B02D15478A52C0BD0FF2B09D09E
:1034D000521C00F2091342609A4209D300F109021A
:1034E000426005E0FFF745FE064604E0012B04D0EC
:1034F0004268AA42DBD1304670BD002070BD7047E3
:10350000F0B5ADF5017D064606EB46002D4F00EB0C
:10351000861507EB850457F82510601A00F209108C
:1035200082B2294850F8260004F038FBC0B20021CE
:1035300068B3217257F82510084447F8250004F2B3
:103540000911884203D304F1090047F825002046F9
:1035500001A9FFF7A8FFFF2823D101A93046FFF7F3
:10356000FBFE06280CD005DC1BD2DFE800F01A09B0
:10357000091A09090E2803D00F2801D0102810D1EC
:103580009DF80400FF280CD0FFF7B9FF09E0207A6E
:10359000401CC0B22072FB2803D9217257F82500C5
:1035A000606007488222808981B23046FFF7A8FD1B
:1035B0003046FFF7BEFD0DF5017DF0BD60850008CA
:1035C00088540020484F00203C89002072B6704784
:1035D00062B67047EFF3108072B6704780F31088C0
:1035E0007047B0FA80F0704790FAA0F0704730BF93
:1035F000704720BF7047000070B504465D480078F2
:1036000000281BD1002C19D002F028FE5A49096865
:1036100091F83420594D91F83560AB5CB343AB540D
:103620002BB9574A91F836501378AB431370CC85B9
:1036300002F018FEBDE8704000F0B4BC70BD70B57B
:103640004C4C2478002C01D0552070BD10B909B91C
:1036500002B91BB13B2903D9512070BD542070BD64
:103660003B2A01D9522070BD4FF47A74A34201D392
:10367000532070BD4FF47A656B43B3FBF4F34FF402
:1036800061646043C1EB011100EB8100104400EB69
:103690004001C1EBC01003EB4010040C80B2FFF7F7
:1036A000ABFF4FF4004507E02846FFF7A5FF28468B
:1036B000FFF7A2FF641EA4B2002CF5D1002070BD5C
:1036C00010B504461F2C01D32A2010BD02F0C6FD00
:1036D0002C4951F8241091B1012914D0CA8DB2B1EE
:1036E0000023CB8591F8302012F0370F13D022F051
:1036F000370281F83020012281F831200DE002F0FC
:10370000B1FD432010BD02F0ADFD432010BD02F01D
:10371000A9FD502010BD81F8313091F830201207FA
:1037200010D4174B34318A781C7822431A700A78E7
:10373000124B49789C5C0C439C5402F093FD00F0C2
:1037400031FC01E002F08EFD002010BD10B502F04A
:1037500085FD0D490C6802F085FD204610BD10B5B1
:10376000044602F07BFD08490C60BDE8104002F001
:1037700079BD00003C000020540000204C000020D7
:10378000400000200872002064000020FB48006810
:1037900002F025B9FA49086800280DD0C2680A600D
:1037A0000021C1600161F7490A88521C0A80F64A6B
:1037B0001188491E118070470020704708B5EF48F6
:1037C0006A460021006802F06AF808BD2DE9F05F42
:1037D0000746DDE90AB90C9D884616469A46002D33
:1037E00008D0012E0FD0022E06D084202870002091
:1037F000BDE8F09F0020FBE7B8F1000F04D1832063
:1038000028700020F4E737B1E048007838B18B2009
:1038100028700020ECE7822028700020E8E7FFF7FE
:10382000CDFFFFF7B7FF0446F4B1012084F8310063
:10383000A761C4F81C8084F83060C4F804A0C4F800
:1038400008B00026B9F1000F09D0484600F046FB49
:1038500010280FD2494604F1200000F0F9FAFFF7D2
:1038600095FF2E702046C3E7FFF790FF8620287053
:103870000020BDE7232084F8200084F821608C20FC
:103880002870FFF783FF2046B2E7002180F831104F
:1038900080F83010C1614161416081603F2280F851
:1038A000202080F821100161B5490A68C2600860D3
:1038B000B4480188491E0180B3480188491C018031
:1038C000704710B5017D01F00701B14A02EBC1015B
:1038D00000240B68C268834203D10A602AB11461D4
:1038E00003E00369DA6002B11361012280F831203C
:1038F000C46004618888401E888010BD70B505468C
:103900000C46002C07D045B12878642809D08920BE
:103910002070002070BD002070BD8A202070002023
:1039200070BD9A48007818B18B202070002070BDBF
:10393000FFF744FF95F83110F9B10026012914D0A2
:10394000022912D0032905D0FFF720FF8D20207017
:10395000002070BD2846FFF7B4FF2846FFF795FF0B
:10396000FFF714FF2670012070BD2846FFF78DFF7A
:10397000FFF70CFF2670012070BDFFF707FF8720BF
:103980002070002070BD70B505460E461446002C10
:1039900008D04EB165B1287864280DD089202070F8
:1039A000002070BD002070BD88202070002070BDF8
:1039B0008A202070002070BD7448007818B1112052
:1039C0002070002070BDFFF7F9FE95F83100B8B106
:1039D000012809D0022807D0032805D0FFF7D6FE1A
:1039E0008D202070002070BD05F12001304600F0D0
:1039F0002FFA0546FFF7CAFE00212170284670BD48
:103A0000FFF7C4FE87202070002070BD2DE9F04133
:103A100005460C46002C08D04DB1287864280AD001
:103A2000892020700020BDE8F0810020FBE78A207B
:103A300020700020F7E75548007818B18B202070DF
:103A40000020F0E7FFF7BAFE95F8310058B30027E1
:103A5000012812D0022821D0032805D0FFF796FEB6
:103A60008D2020700020DEE74A4968690968451A00
:103A7000FFF78CFE27702846D5E795F8300002281E
:103A800005D0AE69FFF782FE27703046CBE7AE69FE
:103A900006B9EE69FFF77AFE2770F6E7FFF776FEC4
:103AA00027700020BFE7FFF771FE872020700020FD
:103AB000B9E770B505460C46002C07D045B128780B
:103AC000642809D089202070002070BD002070BDBE
:103AD0008A202070002070BD2C48007818B18B20FF
:103AE0002070002070BDFFF769FE95F831505DB180
:103AF000012D09D0022D07D0032D05D08D20207077
:103B0000FFF744FE284670BD00202070F8E703222E
:103B100080F831201F4A0129126814D08169B1B19F
:103B200011444161017D01F00701194A02EBC10115
:103B300000230A687AB10860C26010618A88521C4A
:103B40008A8003617047C16911444161EAE7C16934
:103B500011444161E6E70860C36001228A80F0E712
:103B600070B505460C46002C16D0BDB128786428E7
:103B700018D089202070002070BD00007C0000203B
:103B80008400002076000020740000203C0000200B
:103B9000F4800020780000200020EDE78A202070CB
:103BA0000020E9E79548007818B18B2020700020AC
:103BB000E2E7FFF703FE95F8311009B3002601296B
:103BC00015D0022913D0032905D0FFF7DFFD8D2082
:103BD00020700020D0E72846FFF773FE002128461A
:103BE000FFF795FFFFF7D2FD26700120C4E7002103
:103BF0002846FFF78CFFFFF7C9FD26700120BBE7C1
:103C0000FFF7C4FD872020700020B5E72DE9F041C3
:103C100005460E4617461C46002C07D045B12878AD
:103C2000642809D0892020700020FCE60020FAE6F4
:103C30008A2020700020F6E67048007818B18B20AA
:103C400020700020EFE6FFF7B9FD95F8310090B342
:103C500001282AD0022828D0032805D0FFF796FD96
:103C60008D2020700020DEE62846FFF72AFE002087
:103C7000207036B18F20032E07D0042E0DD0842063
:103C80002070FFF783FD0120CDE66A681AB128464F
:103C9000A9689047F5E72070F3E76B681BB13946D8
:103CA00028469847EDE72070EBE7FFF76FFD8E2081
:103CB00020700120B7E6FFE7FFF768FD872020703E
:103CC0000020B0E64E48006801F089BE08B5DFF874
:103CD0003081DFF830914C4E6A460021D8F8000060
:103CE00001F0DDFDFFF76AFD3068401C306000F038
:103CF000070009EBC0000468022713E0E56860696B
:103D0000316888420DD1626812B12046A16890479F
:103D10002046FFF7D6FD94F83000022807D084F83B
:103D200031702C46002CE9D1FFF730FDD4E701219A
:103D30002046FFF7ECFEF4E700B587B02022334BB6
:103D4000CDE9013203200021CDE903104FF6FD70CB
:103D50002E4A00901D237C322D4801F0B9FF06AA9F
:103D60002CA11D2002F022F907B000BD38B54FF498
:103D700050712C4800F0A6FA4021224800F0A2FA27
:103D8000284800F134020021002364243F250470F8
:103D900080F83130C26080F8205080F82130343013
:103DA0003432491C89B20F29F1D3047080F83130C4
:103DB000C36080F8205080F82130134803601A480F
:103DC00003801A491020088019491648086001200C
:103DD00001F0D1FC174C2060002001F0CCFC084D14
:103DE00028606A4614A1206800F082F86A4615A18E
:103DF000286800F07DF8FFF79FFF38BD3C000020E9
:103E000080000020F48000207800002074800020D2
:103E1000CD3C000875432F4F532D494920546D72F6
:103E200000000000347D0020760000207400002097
:103E3000840000207C0000204F532D546D724C6F85
:103E4000636B00004F532D546D725369670000007F
:103E5000002204E000F8013B491C521CD2B20B784E
:103E6000002BF7D100210170104670472DE9F04179
:103E700005460E461446002C09D055B16EB1F848DF
:103E8000007870B1112020700020BDE8F081002082
:103E9000FBE7042020700020F7E70C2020700020B2
:103EA000F3E72878012809D0022807D0032805D095
:103EB000042803D0012020700020E6E702F0CEF9AC
:103EC000074605F10F013046FFF7C2FF05463846A9
:103ED00002F0C8F9002020702846D6E701460020ED
:103EE00002E0491C401CC0B20A78002AF9D1704790
:103EF0002DE9F04105460E461446002CC5D035B1DB
:103F000046B1D748007840B112202070BDE70420A8
:103F10002070BAE70C202070B7E72878012808D075
:103F2000022806D0032804D0042802D001202070E3
:103F3000ABE702F093F907463046FFF7CFFF0F28B3
:103F400005D9384602F08EF90B2020709DE73146E6
:103F500005F10F00FFF77CFF384602F083F90020DF
:103F6000207092E770B510F8344F8578467808686D
:103F700009E00319DA7AB243DA7212B9827AAA43F3
:103F80008272091D08680028F3D170BDB449B54A92
:103F90000879105C01F110031B5CD25C02EBC000DD
:103FA000C870704770B502F059F90546AC4C2078DE
:103FB00098B9607888B9FFF7E9FFE178A078814285
:103FC0000BD0A94850F821102162886B401C8863EF
:103FD000A068401CA06002F058F92846BDE8704077
:103FE00002F040B970B59E4D0022A969CA6108620D
:103FF000016810E0AC6901F10B0214F8343F6478F9
:104000009E5C26439E54AB698A7A93F836301A43F5
:104010008A72001D01680029ECD1A86990F834105B
:104020008F4B90F8354010335A5CA2435A54002A03
:1040300004D190F8361028798843287170BD2DE995
:10404000FF5F8346DDF838800C461646B8F1000F56
:104050000CD00420BBF1000F0CD07CB196B14FF016
:104060000009C4F80090594608681DE0002004B01B
:10407000BDE8F09F88F800000020F8E788F800000D
:104080000020F4E788F800000020F0E7007801281D
:1040900008D0022806D0032804D0012088F80000A8
:1040A0000020E4E7091D08680028EFD16C4801787A
:1040B00021B1022088F800000020D8E76848407845
:1040C00020B10D2088F800000020D0E702F0C6F8EB
:1040D00082460023002700215A4615684BE02878C5
:1040E00001281BD0022826D0032809D0504602F010
:1040F000B9F8C4F80090012088F800003846B6E707
:10410000288940B1401E288120C4012346F8049B21
:104110007F1CBFB22DE041F001012AE0686838B190
:1041200001C6C5F8049020C401237F1CBFB220E063
:1041300041F002011DE06868B0F816C0BCF1000F44
:1041400015D0036903F1040CC0F810C01B6808C641
:10415000D0F808C00369634501D143680361C38A8D
:104160005B1EC38220C401237F1CBFB201E041F06B
:104170000401121D1568002DB1D1012B3ED0384825
:1041800041F08001806900F12E00827842EA01024C
:10419000827080F80390039901805846FFF722FF50
:1041A000504602F05FF8FFF7FDFE02F057F8824636
:1041B0002B48806990F8311049B3022927D059461D
:1041C000FFF7D0FE264A916991F8310070B30228BA
:1041D0004CD0C6F800900A2088F80000906980F85A
:1041E000309080F83190C0F81C90C0F82090C0F852
:1041F0002490504602F036F8384638E7C4F800906C
:10420000504602F02FF888F8009038462FE7C5692D
:104210002DB1256044F8049F7F1CBFB2D2E7012175
:1042200080F831105946FFF79DFECBE7287801282A
:1042300010D002280ED0032809D0504602F012F800
:10424000C4F80090012088F8000038460FE7C6F84F
:10425000009001E0486A306088F80090BEE70000F6
:104260003C000020D885000808720020C6F80090A5
:104270000E2088F80000B1E7FA4C01F0EFFF616909
:10428000491C616101F0EEFF02F043F8F5E700B56B
:1042900087B02022F44BCDE9013203200021CDE983
:1042A0000310F14A4FF6FF701F237C320090AFF2EB
:1042B000370001F00DFD06AAECA11F2001F076FEEB
:1042C00007B000BD002203E000F8012B491E89B2AF
:1042D0000029F9D1704710B54FF47071E748FFF726
:1042E000F1FFE64800F12002002100233F24037083
:1042F0004260C473037420302032491C89B21D29E6
:10430000F5D303704360C4730374D649DB48C860B7
:1043100010BD10B540F28C71D948FFF7D3FFD248D9
:1043200080218030FFF7CEFFD54800F15C020021EC
:1043300000243F23426180F84C3080F84D405C30CF
:104340005C32491CC9B21429F4D3446180F84C3062
:1043500080F84D40C3484462C949C16110BDC14B9A
:1043600000221A7103F11001002001F8012B401CFA
:10437000C0B20428F9D39A70DA701A629A61704751
:10438000B848002181620170417081714171816082
:104390004161704710B501F0B3FFFFF7F1FFFFF780
:1043A000DEFFFFF7B6FFFFF796FF00F0A8FD00F075
:1043B000CAFE01F0B0F9FFF76AFFFFF7D7FCBDE8CE
:1043C000104001F0A1BFA7494879012804D108781D
:1043D000FF2801D2401C0870704770B5A14C60796D
:1043E000012822D101F03AFF0546217809B1491E82
:1043F00021702078A0B9607890B9FFF7C7FDE17807
:10440000A07881420CD09848803050F82110216269
:10441000886B401C8863A068401CA06001F03AFFD4
:104420002846BDE8704001F01DBF70BD10B58D4C31
:10443000607901280CD101F011FF217821B9617850
:10444000FF2901D2491C6170BDE8104001F00ABF8C
:1044500010BD10B5834C607901281AD101F0FEFE21
:10446000617891B1491EC9B2617019B1BDE81040BF
:1044700001F0F8BE217819B1BDE8104001F0F2BE9C
:1044800001F0F0FEBDE810408CE5BDE8104001F001
:10449000E9BE10BD10B5734C607900280DD1FFF74F
:1044A00075FDE078A0707049803151F820002062DD
:1044B000A061BDE8104001F0D8BE10BD2DE9F0416B
:1044C00001F061FF01F0CAFE664DA96A491CA962AC
:1044D00001F0C8FE6879012845D1E8790126002756
:1044E00048B1012809D0022809D00120EF71002825
:1044F00039D06C6A33E00120F9E70020F7E70120AA
:10450000EE71F4E701F0AAFEE18D29B3491E09041A
:10451000090CE18520D194F8301011F0370F06D046
:1045200021F0370184F8301084F8316001E084F81C
:10453000317094F8301009070ED494F836102A79A7
:1045400011432971474A94F83410103294F835C059
:10455000535C43EA0C035354646901F083FE94F8FE
:1045600032001F28CED190E44FF48F70704770470F
:1045700010B590F8342090F835408B18DA7AA243C1
:10458000DA72002A04D18A7A90F8360082438A725D
:1045900010BDF0B505460F46A87A3A49085C2C18BC
:1045A000E47A095D01EBC001CEB22F49803151F8A8
:1045B0002640002104F1240461812760217B21EA47
:1045C000020121736373A4F124044FEA01710029ED
:1045D0000BDB244994F836200B791A430A71103109
:1045E00094F835300A5C1A430A5429462046FFF7EE
:1045F000BFFF216A19B12046FFF7B4FCE5613046E0
:10460000F0BD30B5174CA16941F81C0F00F10B0249
:104610000B7E497E9D5C0D439D54A169827A01F118
:1046200034018B7842EA03028272087804F11003A5
:104630004D781A5CA1F1340122EA05021A54002ACD
:1046400004D191F8361020798843207130BD0022C2
:1046500082720B30002100F8012B491CC9B20429D9
:10466000F9D370473C0000208871002075432F4F1C
:10467000532D49492049646C65000000C86D002035
:1046800088720020D885000805E011F8013B00F889
:10469000013B521E92B2002AF7D1E2E77CB500241A
:1046A000444D6946204601F00DFD58B955F82410D7
:1046B00041B1012906D0D1E9020200EB8200486431
:1046C00001988864641CE4B21F2CEAD97CBD2DE9F2
:1046D000F05F0646DDE90ABA0D469046994601F0BC
:1046E000BDFD354FFC69002C5FD004F1180454F86F
:1046F000041CF96101F0B6FD44F8185CA6760025AB
:1047000025766576E58244F814AC44F80CBC44F890
:10471000108C0C9824F8080C24F8069CE577F00817
:10472000207706F00701E176012202FA00F0A07777
:104730008A4062776560A5602561E5602562A562B3
:104740006562E56225633F2084F8340084F83550C3
:10475000A4F11804204601F014FE204601F0D5FD16
:1047600001F07CFD0146134840F82640786A6061FC
:10477000A56100B184617C6204F134043A79A078C7
:1047800040EA020038710C4A207802F11002647885
:10479000135C43EA04031354B87900F10100B871C3
:1047A000084601F05FFD002062E401F05BFD42205D
:1047B0005EE40000087200203C0000202DE9F0417A
:1047C00005460F4614461E46002E08D04DB12878E7
:1047D00005280AD0012030700020BDE8F0810020BB
:1047E000FBE76E2030700020F7E704F0800020B176
:1047F00024F080044FF0010801E04FF00008002091
:10480000307001F02BFD70224CB3012C36D0022CFD
:1048100008D0032C15D001F025FD00246F20307046
:104820002046DAE72C8921463C40BC4205D1B8F14C
:10483000010F03D1A143298100E0327001F012FD84
:10484000EEE72C8921463C402CB1B8F1010F03D191
:10485000A143298100E0327001F004FDE0E72989DD
:1048600027EA0104BC4205D1B8F1010F03D121436D
:10487000298100E0327001F0F5FCD1E7298927EAAF
:1048800001042CB1B8F1010F03D12143298100E0CB
:10489000327001F0E7FCC3E770B506460D46002D07
:1048A00006D0FB48007828B110202870002070BD89
:1048B000002070BD01F0D2FCF6490C686CB1626852
:1048C0000A60052121702681002666603F21A172C1
:1048D000E67201F0C7FC2E7003E001F0C3FC722009
:1048E0002870204670BD426801680023002A05D068
:1048F000116001B14A60806883627047C26851608C
:104900000029F8D04B60F6E710B502469068002306
:1049100000F12C0043800180017921F02001017118
:104920004371A0F12C00002905D000241046FFF7A8
:10493000DAFF204610BDD84900F1340083780C78A6
:1049400043EA04030B700178D44B40785C5C44EA82
:1049500000045C544FF00104E8E72DE9F05F0446E1
:1049600089461546002D08D04CB1C948007850B191
:104970000F2028702046BDE8F09F2046FBE76E2000
:1049800028702046F7E72078052803D001202870FA
:104990002046F0E701F062FC804666680EB1012710
:1049A00000E000275FEA0901DFF8E8A24FF03F0BC3
:1049B0004FF0000908D0012927D0404601F052FCF1
:1049C000072028702046D6E737B1404601F04AFC60
:1049D000492028702046CEE784F80AB084F80B906E
:1049E00084F80090DAF800006060A4F80890CAF833
:1049F0000040404601F036FC85F800900020BAE700
:104A000000213046FFF780FF3668002EF8D184F889
:104A10000AB084F80B9084F80090DAF80000606027
:104A2000A4F80890CAF80040404601F01BFC012F92
:104A300001D1FFF7B7FA85F8009000209BE72DE938
:104A4000F04105460F461446002C08D04DB167B121
:104A50008F48007868B1112020700020BDE600204A
:104A6000BBE66E2020700020B7E60C2020700020EE
:104A7000B3E601F0F3FB06462878052806D0304659
:104A800001F0F0FB012020700020A6E605F10A01EC
:104A90003846FFF7DDF90546304601F0E3FB00201C
:104AA0002070284699E62DE9F04105460F46144648
:104AB000002C06D035B147B17548007840B11220BE
:104AC00020708AE66E20207087E60C20207084E635
:104AD00001F0C4FB06462878052805D0304601F0D1
:104AE000C1FB0120207078E63846FFF7F7F90F2860
:104AF00005D9304601F0B6FB732020706DE63946CB
:104B000005F10A00FFF7A4F9304601F0ABFB0020E5
:104B1000207062E6F0B5059F614D2C6804F1280411
:104B2000267A46F0200626724FF000066672E7806D
:104B300044F828190A828B748C6042680A604E60BF
:104B4000C8604268002A00D051604160286890F82F
:104B50003410524B90F835405A5CA2435A54002A04
:104B600005D190F836204C48017891430170F0BD92
:104B70002DE9F04F87B00446109D0F4691469A46A6
:104B8000002D09D054B14248007858B10220287055
:104B9000002007B0BDE8F08F0020FAE76E202870F3
:104BA0000020F6E73F48007818B10D20287000205B
:104BB000EFE72078052803D0012028700020E8E7DF
:104BC00009F0800018B129F08009012600E00026D4
:104BD00001F044FB01904FF0000BB9F1000F63D0DE
:104BE000B9F1010F75D0B9F1020F09D0B9F1030F76
:104BF00029D0019801F036FB00206F212970C8E709
:104C0000B4F80880404608EA0708B8450FD1012EDD
:104C100002D120EA0800208121480068A0F82C80F9
:104C2000019801F01FFB85F800B04046B1E74B4604
:104C30003A4602A92046CDF800A0FFF76BFF019885
:104C400001F010FB73E0B4F80880404608EA07085A
:104C5000B8F1000F0FD0012E02D120EA0800208108
:104C60000F480068A0F82C80019801F0FBFA85F845
:104C700000B040468DE74B463A4602A92046CDF8A3
:104C800000A0FFF747FF019801F0ECFA4FE00BE0BE
:104C90003C00002068000020400000204C00002064
:104CA000540000203D000020208927EA0008B84574
:104CB00010D1012E02D140EA080020819E480068F0
:104CC000A0F82C80019801F0CDFA85F800B040469C
:104CD0005FE70BE04B463A4602A92046CDF800A01C
:104CE000FFF718FF019801F0BDFA20E0208927EABC
:104CF0000008B8F1000F0FD0012E02D140EA0800E1
:104D000020818D480068A0F82C80019801F0AAFA53
:104D100085F800B040463CE74B463A4602A920469B
:104D2000CDF800A0FFF7F6FE019801F09BFAFFF71F
:104D300039F901F093FA8046DFF8FCA1DAF80000B7
:104D400090F83170A7B180F831B002A8FFF7CBFD21
:104D5000DAF8000080F830B0404601F083FA002015
:104D6000022F02D00A21297013E70E21297010E7C3
:104D7000878D012E19D1B9F1000F13D0B9F1010FB0
:104D800010D0B9F1020F09D0B9F1030F06D0404697
:104D900001F068FA6F2028700020FAE62089B843F5
:104DA000208102E0208938432081404601F05AFAF0
:104DB00085F800B03846ECE610B501F04FFA5E49D0
:104DC00009688C8D01F04EFA204610BD2DE9F041A6
:104DD00005460E4614461F46002F07D045B12878D9
:104DE000052809D0012038700020F6E40020F4E402
:104DF0006E2038700020F0E401F030FA804644B1B3
:104E0000012C0AD0404601F02DFA712038700020A4
:104E1000E3E42889B043288102E0288930432881CF
:104E200000266C683DE0A07C18B301282ED0022833
:104E300008D0032812D0404601F014FA6F203870D1
:104E40000020CAE42989208A0140884228D12046CE
:104E5000FFF75AFD012823D1012621E02989208A64
:104E60000140E9B12046FFF74FFD012818D1012686
:104E700016E0218A2A8908469143884210D12046AB
:104E8000FFF742FD01280BD1012609E0218A28897C
:104E9000814329B12046FFF737FD012800D10126C3
:104EA0002468002CBFD1404601F0DCF9012E01D16D
:104EB000FFF778F801F0D2F92C8901F0D3F900203E
:104EC0003870204689E470B505460C46002C07D0A2
:104ED00045B12878052809D001202070002070BD38
:104EE000002070BD6E202070002070BD01F0B6F96A
:104EF0002D8901F0B7F900202070284670BD10B54B
:104F00008C210E48FFF7DEF90C4800F11C0200214D
:104F100000233F24037042608472C3721C301C3231
:104F2000491C89B20429F5D3037043608472C372AB
:104F300003490248086010BD54000020147A002084
:104F4000680000202DE9F0470746894690461E4636
:104F5000002E07D062203FB1B90708D03070002082
:104F6000BDE8F0870020FBE730700020F8E7B9F1DA
:104F7000020F03D25B2030700020F1E7B8F1040F7C
:104F800003D25C2030700020EAE701F067F97C4929
:104F90000D680DB16A680A6001F064F935B13B46ED
:104FA00007EB08040020A9F1010107E05A20307046
:104FB0000020D5E71C6023464444401C8842F9D3B6
:104FC000002018602F606F60C5F81090C5F80C9035
:104FD000C5F8088030702846C2E770B504460D4613
:104FE000002D0FD084B101F039F9216981B16668D3
:104FF00032686260491E216101F034F90020287096
:10500000304670BD002070BD60202870002070BD4B
:1050100001F028F95D202870002070BD2DE9F041D5
:1050200005460E461446002C09D055B16EB15548C0
:10503000007870B1112020700020BDE8F0810020C0
:10504000FBE7602020700020F7E70C202070002094
:10505000F3E701F003F9074605F114013046FEF7C6
:10506000F7FE0546384601F0FDF80020207028467E
:10507000E3E72DE9F04105460E461446002CDCD04E
:1050800035B146B13F48007840B112202070D4E7D6
:1050900060202070D1E70C202070CEE701F0DEF810
:1050A00007463046FEF71AFF0F2805D9384601F0AB
:1050B000D9F863202070C0E7314605F11400FEF7EF
:1050C000C7FE384601F0CEF800202070B5E770B575
:1050D00004460D46002C0AD05DB101F0BFF8D4E9BA
:1050E0000321914207D301F0BDF85E2070BD60201E
:1050F00070BD5F2070BD6168296065602169491CD1
:10510000216101F0AFF8002070BD70B505460C4676
:10511000002D14D0ACB101F0A1F8296821606968B4
:105120006160A968A160E968E1602969216101F015
:1051300099F8D4E90301401A6061002070BD602035
:1051400070BD612070BD70B5B4210F48FFF7BAF88B
:105150000D480021002402463F23491C01EBC105F4
:1051600002EB8505456003754475243089B2042936
:10517000F3D34460037544750148026070BD0000BC
:105180006C0000203C000020A07A002070B505468D
:105190000C46002C07D045B12878022809D0012000
:1051A0002070002070BD002070BD04202070002001
:1051B00070BD01F053F803466A68D08A70B1116976
:1051C000081D10610D68D18A491ED18291688842FC
:1051D00001D1506810610020207002E01F20207073
:1051E0000025184601F03EF8284670BD2DE9F04133
:1051F00006468846FD480078002802D00020BDE819
:10520000F08101F02BF8FA4F3C680CB1616839600D
:1052100001F028F81CB301F021F8F6490D68C5B17A
:105220002A680A6001F01EF86E6006EB8800A8602C
:10523000EE602E61A5F814800020E8820221217022
:10524000208165603F21E17320742046FFF7FFF95C
:1052500005E0396861603C6001F004F800242046F4
:10526000CDE72DE9F05F044688461546002D08D0AD
:105270004CB1207802280AD0012028702046BDE8D1
:10528000F09F2046FBE7042028702046F7E7D74828
:10529000007818B10F2028702046F0E700F0DEFFFC
:1052A0000746A07A08B1012600E000265FEA08015F
:1052B000DFF84093DFF838A34FF03F0B4FF00008C2
:1052C00008D001292ED0384600F0CCFF07202870E6
:1052D0002046D4E736B1384600F0C4FF4920287094
:1052E0002046CCE784F80FB084F810806068D9F8C5
:1052F00000100160C9F8000084F80080DAF80000AE
:105300006060A4F80880CAF80040384600F0AAFFA0
:1053100085F800800020B2E70023042219462046C9
:10532000FFF737F9A07A0028F6D184F80FB084F897
:1053300010806068D9F800100160C9F8000084F896
:105340000080DAF800006060A4F80880CAF8004025
:10535000384600F087FF012E01D1FEF723FE85F8C5
:10536000008000208BE710B50446002C04D0207884
:10537000022803D0012010BD042010BD00F06EFFF4
:10538000014660684268C260426802610022C282CF
:10539000084600F067FF002010BD2DE9F0470546E4
:1053A00089461446002C08D04DB1287802280AD02E
:1053B000012020700020BDE8F0870020FBE70420DA
:1053C00020700020F7E78948007818B1022020708B
:1053D0000020F0E78848007818B10D2020700020E8
:1053E000E9E700F03BFF06466A680027D08A88B1EB
:1053F0001169081D10610D68D18A491ED18291681A
:10540000884201D150681061304600F02BFF2770B0
:105410002846D0E7DFF8E481D8F8002012F8300FF2
:1054200040F004001070577022F8029C2846FFF7E5
:10543000E8F8304600F016FFFEF7B4FD00F00EFF6E
:105440000646D8F8000090F83110A1B1022915D015
:105450002946FFF78DF800250A202070D8F80000B3
:105460001C3007754775076047608760304600F05D
:10547000F9FE28469FE7456A2770EFE700250E20D2
:105480002070EBE72DE9F041064688461546002DD1
:1054900007D046B131780120022908D028700020B9
:1054A000ADE60020ABE6042028700020A7E600F05F
:1054B000D5FE0746B07AF8B10024B8F1010F17D035
:1054C0000223042200213046FFF763F80124384606
:1054D00000F0C8FEFEF766FD0E20287020468EE61E
:1054E0000223042200213046FFF753F8641CE4B283
:1054F000B07A0028F4D1EAE7384600F0B3FE002085
:1055000028707CE670B504460E46002C04D0207846
:10551000022803D0012070BD042070BD00F09EFE63
:105520000546A07A60B10023042231462046FFF7E9
:1055300030F8284600F096FEFEF734FD002070BDDE
:105540006068C18A828A914204D3284600F08AFEAC
:105550001E2070BDC268111DC1601660C18A491C41
:10556000C182D0E90221914201D14168C16028463F
:1055700000F078FE002070BD70B504460E46002C89
:1055800004D02078022803D0012070BD042070BD13
:1055900000F064FE0546A07A60B100230422314683
:1055A0002046FEF7F6FF284600F05CFEFEF7FAFC08
:1055B000002070BD6068C18A828A914204D3284667
:1055C00000F050FE1E2070BD42680169914201D179
:1055D000816801610269121F02611660C18A491C5B
:1055E000C182284600F03EFE002070BD3C00002035
:1055F00048000020700000203D00002054000020E2
:105600002DE9F04104460E461546002C04D02078C2
:10561000022803D00120F2E50420F0E500F01EFE90
:105620000746A07AD8B1E80706D109E00023042292
:1056300031462046FEF7ADFFA07A0028F6D105E0FE
:105640000023042231462046FEF7A3FF384600F02F
:1056500009FE680701D4FEF7A5FC0020CFE56068CD
:10566000C18A828A914204D3384600F0FBFD1E2095
:10567000C5E5A9070AD542680169914201D181684F
:1056800001610269121F0261166009E0C1680A1D0A
:10569000C2600E60D0E90221914201D14168C1602F
:1056A000C18A491CC182384600F0DCFD0020A6E515
:1056B00070B506460D46002E05D035B1307802286B
:1056C00005D0012091E704208FE709208DE700F045
:1056D000C5FD0346B07A287306F10B0405F10801F5
:1056E000002214F8010B01F8010B521CD2B2042A5B
:1056F000F7D37068C18A19B101690968296001E0AE
:1057000000212960C18AA980808AE880184600F0BB
:10571000A9FD002069E710B54FF4F0710948FEF7C4
:10572000D1FD084800F11802002140F8182B18326A
:10573000491C89B21329F8D30021016002490148AC
:10574000086010BD547B00207000002070B5044636
:10575000002C04D02078032803D0002070BD002046
:1057600070BD00F07BFD25890DB1691E218100F01F
:1057700079FD284670BD70B50546D44800780028EC
:1057800001D0002070BD00F069FDD1490C680CB15A
:1057900062680A6000F066FD54B103202070258124
:1057A000002060603F21E17320742046FEF74FFF28
:1057B000204670BD2DE9F05F04468B461546002D4E
:1057C00008D04CB1207803280AD001202870204648
:1057D000BDE8F09F2046FBE7042028702046F7E74D
:1057E000BA48007818B10F2028702046F0E700F082
:1057F00035FD0746A07A08B1012600E00026DFF853
:10580000D0924FF03F0A4FF00008BBF1000F09D0D3
:10581000BBF1010F28D0384600F024FD0720287086
:105820002046D5E736B1384600F01CFD49202870E7
:105830002046CDE784F80FA084F8108084F800801B
:10584000D9F800006060A4F80880C9F80040384624
:1058500000F008FD85F800800020B9E70023012250
:1058600019462046FEF795FEA07A0028F6D184F866
:105870000FA084F8108084F80080D9F800006060E0
:10588000A4F80880C9F80040384600F0EBFC012E6F
:1058900001D1FEF787FB85F80080002098E72DE90D
:1058A000F047054689461446002C05D035B12878C6
:1058B000032806D001202070BDE8F0870420207066
:1058C000FAE78248007810B102202070F4E781489E
:1058D000007810B10D202070EEE700F0BFFC064606
:1058E0002889002730B1401E2881304600F0BAFCDC
:1058F0002770E1E7DFF8E081D8F8000010F8301FEA
:1059000041F001010170477020F8029C2846FEF723
:1059100078FE304600F0A6FCFEF744FB00F09EFC4B
:105920000646D8F8000090F8311091B1022912D043
:105930002946FEF71DFE0A202070D8F800001C3012
:1059400007754775076047603046BDE8F04700F0CF
:1059500089BC2770F1E70E202070EEE72DE9F041B9
:10596000064688461546002D08D04EB131780120F4
:10597000032909D028700020BDE8F0810020FBE752
:10598000042028700020F7E700F068FC0746B07A92
:10599000F8B10024B8F1010F17D002230122002131
:1059A0003046FEF7F6FD0124384600F05BFCFEF7BA
:1059B000F9FA0E2028702046DEE70223012200219A
:1059C0003046FEF7E6FD641CE4B2B07A0028F4D15C
:1059D000EAE7384600F046FC00202870CCE770B5B6
:1059E0000446002C04D02078032803D0012070BD89
:1059F000042070BD00F032FC0546A07A60B100239F
:105A0000012219462046FEF7C4FD284600F02AFC74
:105A1000FEF7C8FA002070BD20894FF6FF7188425A
:105A200006D2401C2081284600F01CFC002070BDDE
:105A3000284600F017FC322070BD2DE9F0410646E3
:105A40000F46002E05D037B13078032805D001204D
:105A500092E7042090E709208EE700F0FFFBB17A7F
:105A6000B97106F10B04BD1C002214F8011B05F8E6
:105A7000011B521CD2B2042AF7D33189398000F0BD
:105A8000F1FB002078E770B504460E461546002D60
:105A900005D02CB12078032805D00120287070BDD6
:105AA0000420287070BD00F0D9FB002129702189E5
:105AB00009B1268103E0A17A29B149212970BDE805
:105AC000704000F0CFBB2681F9E700003C000020C9
:105AD000480000203D000020540000202DE9F05F28
